{
  "contractName": "ProductBuyer",
  "abi": [
    {
      "inputs": [],
      "payable": false,
      "stateMutability": "nonpayable",
      "type": "constructor"
    },
    {
      "anonymous": false,
      "inputs": [
        {
          "indexed": false,
          "internalType": "address",
          "name": "_address",
          "type": "address"
        }
      ],
      "name": "ProductBuyerAdded",
      "type": "event"
    },
    {
      "anonymous": false,
      "inputs": [
        {
          "indexed": false,
          "internalType": "address",
          "name": "_address",
          "type": "address"
        }
      ],
      "name": "ProductBuyerRemoved",
      "type": "event"
    },
    {
      "constant": true,
      "inputs": [
        {
          "internalType": "address",
          "name": "_address",
          "type": "address"
        }
      ],
      "name": "isProductBuyer",
      "outputs": [
        {
          "internalType": "bool",
          "name": "",
          "type": "bool"
        }
      ],
      "payable": false,
      "stateMutability": "view",
      "type": "function"
    },
    {
      "constant": false,
      "inputs": [
        {
          "internalType": "address",
          "name": "_address",
          "type": "address"
        }
      ],
      "name": "addProductBuyer",
      "outputs": [],
      "payable": false,
      "stateMutability": "nonpayable",
      "type": "function"
    },
    {
      "constant": false,
      "inputs": [],
      "name": "renounceProductBuyer",
      "outputs": [],
      "payable": false,
      "stateMutability": "nonpayable",
      "type": "function"
    }
  ],
  "bytecode": "0x608060405234801561001057600080fd5b506100203361002560201b60201c565b6101e7565b61003d8160006100a360201b6103671790919060201c565b7f6a88659e59e11ad8467836eb457b897ce226167c5cf892c220c4488a239edec681604051808273ffffffffffffffffffffffffffffffffffffffff1673ffffffffffffffffffffffffffffffffffffffff16815260200191505060405180910390a150565b600073ffffffffffffffffffffffffffffffffffffffff168173ffffffffffffffffffffffffffffffffffffffff1614156100dd57600080fd5b6100ed828261015560201b60201c565b156100f757600080fd5b60018260000160008373ffffffffffffffffffffffffffffffffffffffff1673ffffffffffffffffffffffffffffffffffffffff16815260200190815260200160002060006101000a81548160ff0219169083151502179055505050565b60008073ffffffffffffffffffffffffffffffffffffffff168273ffffffffffffffffffffffffffffffffffffffff16141561019057600080fd5b8260000160008373ffffffffffffffffffffffffffffffffffffffff1673ffffffffffffffffffffffffffffffffffffffff16815260200190815260200160002060009054906101000a900460ff16905092915050565b610448806101f66000396000f3fe608060405234801561001057600080fd5b50600436106100415760003560e01c806323a431db146100465780638d6c5b71146100a25780639c6f7bfe146100ac575b600080fd5b6100886004803603602081101561005c57600080fd5b81019080803573ffffffffffffffffffffffffffffffffffffffff1690602001909291905050506100f0565b604051808215151515815260200191505060405180910390f35b6100aa61010d565b005b6100ee600480360360208110156100c257600080fd5b81019080803573ffffffffffffffffffffffffffffffffffffffff169060200190929190505050610118565b005b600061010682600061013690919063ffffffff16565b9050919050565b610116336101c8565b565b610121336100f0565b61012a57600080fd5b61013381610242565b50565b60008073ffffffffffffffffffffffffffffffffffffffff168273ffffffffffffffffffffffffffffffffffffffff16141561017157600080fd5b8260000160008373ffffffffffffffffffffffffffffffffffffffff1673ffffffffffffffffffffffffffffffffffffffff16815260200190815260200160002060009054906101000a900460ff16905092915050565b6101dc8160006102bc90919063ffffffff16565b7f58e2ea52b75f22dc91d133a77d0c158cda883925ec37505bb6e97202ce65950b81604051808273ffffffffffffffffffffffffffffffffffffffff1673ffffffffffffffffffffffffffffffffffffffff16815260200191505060405180910390a150565b61025681600061036790919063ffffffff16565b7f6a88659e59e11ad8467836eb457b897ce226167c5cf892c220c4488a239edec681604051808273ffffffffffffffffffffffffffffffffffffffff1673ffffffffffffffffffffffffffffffffffffffff16815260200191505060405180910390a150565b600073ffffffffffffffffffffffffffffffffffffffff168173ffffffffffffffffffffffffffffffffffffffff1614156102f657600080fd5b6103008282610136565b61030957600080fd5b60008260000160008373ffffffffffffffffffffffffffffffffffffffff1673ffffffffffffffffffffffffffffffffffffffff16815260200190815260200160002060006101000a81548160ff0219169083151502179055505050565b600073ffffffffffffffffffffffffffffffffffffffff168173ffffffffffffffffffffffffffffffffffffffff1614156103a157600080fd5b6103ab8282610136565b156103b557600080fd5b60018260000160008373ffffffffffffffffffffffffffffffffffffffff1673ffffffffffffffffffffffffffffffffffffffff16815260200190815260200160002060006101000a81548160ff021916908315150217905550505056fea265627a7a723158205d85030111075b6301686c256a22f13b033f2629bf0ff70e4aba3a43ebf9beb464736f6c63430005100032",
  "source": "pragma solidity ^0.5.0;\n\n\nimport \"../Roles.sol\";\n\ncontract ProductBuyer {\n    using Roles for Roles.Role;\n\n    event ProductBuyerAdded(address _address);\n    event ProductBuyerRemoved(address _address);\n\n    Roles.Role private productBuyers;\n\n    constructor() public {\n        _addProductBuyer(msg.sender);\n    }\n\n    modifier onlyProductBuyer() {\n        require(isProductBuyer(msg.sender));\n        _;\n    }\n\n    function isProductBuyer(address _address) public view returns (bool) {\n        return productBuyers.has(_address);\n    }\n\n    function addProductBuyer(address _address) public onlyProductBuyer {\n        _addProductBuyer(_address);\n    }\n\n    function renounceProductBuyer() public {\n        _removeProductBuyer(msg.sender);\n    }\n\n    function _addProductBuyer(address _address) internal {\n        productBuyers.add(_address);\n        emit ProductBuyerAdded(_address);\n    }\n\n    function _removeProductBuyer(address _address) internal {\n        productBuyers.remove(_address);\n        emit ProductBuyerRemoved(_address);\n    }\n}",
  "sourcePath": "/Users/max/Desktop/Product-supplychain/contracts/accesscontrol/Product/ProductBuyer.sol",
  "compiler": {
    "name": "solc",
    "version": "0.5.16+commit.9c3226ce.Emscripten.clang"
  },
  "schemaVersion": "3.0.23",
  "updatedAt": "2020-08-03T17:26:02.893Z",
  "devdoc": {
    "methods": {}
  },
  "userdoc": {
    "methods": {}
  }
}