{
  "contractName": "ProductOwner",
  "abi": [
    {
      "inputs": [],
      "payable": false,
      "stateMutability": "nonpayable",
      "type": "constructor"
    },
    {
      "anonymous": false,
      "inputs": [
        {
          "indexed": false,
          "internalType": "address",
          "name": "_address",
          "type": "address"
        }
      ],
      "name": "ProductOwnerAdded",
      "type": "event"
    },
    {
      "anonymous": false,
      "inputs": [
        {
          "indexed": false,
          "internalType": "address",
          "name": "_address",
          "type": "address"
        }
      ],
      "name": "ProductOwnerRemoved",
      "type": "event"
    },
    {
      "constant": true,
      "inputs": [
        {
          "internalType": "address",
          "name": "_address",
          "type": "address"
        }
      ],
      "name": "isProductOwner",
      "outputs": [
        {
          "internalType": "bool",
          "name": "",
          "type": "bool"
        }
      ],
      "payable": false,
      "stateMutability": "view",
      "type": "function"
    },
    {
      "constant": false,
      "inputs": [
        {
          "internalType": "address",
          "name": "_address",
          "type": "address"
        }
      ],
      "name": "addProductOwner",
      "outputs": [],
      "payable": false,
      "stateMutability": "nonpayable",
      "type": "function"
    },
    {
      "constant": false,
      "inputs": [],
      "name": "renounceProductOwner",
      "outputs": [],
      "payable": false,
      "stateMutability": "nonpayable",
      "type": "function"
    }
  ],
  "bytecode": "0x608060405234801561001057600080fd5b506100203361002560201b60201c565b6101e7565b61003d8160006100a360201b6103671790919060201c565b7ffeddfd35b909a02c22e5c27a5b9956cb467bfd7b2d2d3d42723390a30138552e81604051808273ffffffffffffffffffffffffffffffffffffffff1673ffffffffffffffffffffffffffffffffffffffff16815260200191505060405180910390a150565b600073ffffffffffffffffffffffffffffffffffffffff168173ffffffffffffffffffffffffffffffffffffffff1614156100dd57600080fd5b6100ed828261015560201b60201c565b156100f757600080fd5b60018260000160008373ffffffffffffffffffffffffffffffffffffffff1673ffffffffffffffffffffffffffffffffffffffff16815260200190815260200160002060006101000a81548160ff0219169083151502179055505050565b60008073ffffffffffffffffffffffffffffffffffffffff168273ffffffffffffffffffffffffffffffffffffffff16141561019057600080fd5b8260000160008373ffffffffffffffffffffffffffffffffffffffff1673ffffffffffffffffffffffffffffffffffffffff16815260200190815260200160002060009054906101000a900460ff16905092915050565b610448806101f66000396000f3fe608060405234801561001057600080fd5b50600436106100415760003560e01c806378b749fc14610046578063bb6a452014610050578063eff18b6d146100ac575b600080fd5b61004e6100f0565b005b6100926004803603602081101561006657600080fd5b81019080803573ffffffffffffffffffffffffffffffffffffffff1690602001909291905050506100fb565b604051808215151515815260200191505060405180910390f35b6100ee600480360360208110156100c257600080fd5b81019080803573ffffffffffffffffffffffffffffffffffffffff169060200190929190505050610118565b005b6100f933610136565b565b60006101118260006101b090919063ffffffff16565b9050919050565b610121336100fb565b61012a57600080fd5b61013381610242565b50565b61014a8160006102bc90919063ffffffff16565b7fb2b9f12ce8795d8bb93ac39472d8bcd88d5157f3709c9fe624eca3ce3c9bf39081604051808273ffffffffffffffffffffffffffffffffffffffff1673ffffffffffffffffffffffffffffffffffffffff16815260200191505060405180910390a150565b60008073ffffffffffffffffffffffffffffffffffffffff168273ffffffffffffffffffffffffffffffffffffffff1614156101eb57600080fd5b8260000160008373ffffffffffffffffffffffffffffffffffffffff1673ffffffffffffffffffffffffffffffffffffffff16815260200190815260200160002060009054906101000a900460ff16905092915050565b61025681600061036790919063ffffffff16565b7ffeddfd35b909a02c22e5c27a5b9956cb467bfd7b2d2d3d42723390a30138552e81604051808273ffffffffffffffffffffffffffffffffffffffff1673ffffffffffffffffffffffffffffffffffffffff16815260200191505060405180910390a150565b600073ffffffffffffffffffffffffffffffffffffffff168173ffffffffffffffffffffffffffffffffffffffff1614156102f657600080fd5b61030082826101b0565b61030957600080fd5b60008260000160008373ffffffffffffffffffffffffffffffffffffffff1673ffffffffffffffffffffffffffffffffffffffff16815260200190815260200160002060006101000a81548160ff0219169083151502179055505050565b600073ffffffffffffffffffffffffffffffffffffffff168173ffffffffffffffffffffffffffffffffffffffff1614156103a157600080fd5b6103ab82826101b0565b156103b557600080fd5b60018260000160008373ffffffffffffffffffffffffffffffffffffffff1673ffffffffffffffffffffffffffffffffffffffff16815260200190815260200160002060006101000a81548160ff021916908315150217905550505056fea265627a7a72315820645925834de5d27db994c2a37cfdb853ca8eab34880791442f955ce2ac8340d964736f6c63430005100032",
  "source": "pragma solidity ^0.5.0;\n\nimport \"../Roles.sol\";\n\ncontract ProductOwner {\n    using Roles for Roles.Role;\n\n    event ProductOwnerAdded(address _address);\n    event ProductOwnerRemoved(address _address);\n\n    Roles.Role private productOwners;\n\n    constructor() public {\n        _addProductOwner(msg.sender);\n    }\n\n    modifier onlyProductOwner() {\n        require(isProductOwner(msg.sender));\n        _;\n    }\n\n    function isProductOwner(address _address) public view returns (bool) {\n        return productOwners.has(_address);\n    }\n\n    function addProductOwner(address _address) public onlyProductOwner {\n        _addProductOwner(_address);\n    }\n\n    function renounceProductOwner() public {\n        _removeProductOwner(msg.sender);\n    }\n\n    function _addProductOwner(address _address) internal {\n        productOwners.add(_address);\n        emit ProductOwnerAdded(_address);\n    }\n\n    function _removeProductOwner(address _address) internal {\n        productOwners.remove(_address);\n        emit ProductOwnerRemoved(_address);\n    }\n}",
  "sourcePath": "/Users/max/Desktop/Product-supplychain/contracts/accesscontrol/Product/ProductOwner.sol",
  "compiler": {
    "name": "solc",
    "version": "0.5.16+commit.9c3226ce.Emscripten.clang"
  },
  "schemaVersion": "3.0.23",
  "updatedAt": "2020-08-03T17:26:02.894Z",
  "devdoc": {
    "methods": {}
  },
  "userdoc": {
    "methods": {}
  }
}