{
  "contractName": "RawprodctOwner",
  "abi": [
    {
      "inputs": [],
      "payable": false,
      "stateMutability": "nonpayable",
      "type": "constructor"
    },
    {
      "anonymous": false,
      "inputs": [
        {
          "indexed": false,
          "internalType": "address",
          "name": "_address",
          "type": "address"
        }
      ],
      "name": "RawprodctOwnerAdded",
      "type": "event"
    },
    {
      "anonymous": false,
      "inputs": [
        {
          "indexed": false,
          "internalType": "address",
          "name": "_address",
          "type": "address"
        }
      ],
      "name": "RawprodctOwnerRemoved",
      "type": "event"
    },
    {
      "constant": true,
      "inputs": [
        {
          "internalType": "address",
          "name": "_address",
          "type": "address"
        }
      ],
      "name": "isRawprodctOwner",
      "outputs": [
        {
          "internalType": "bool",
          "name": "",
          "type": "bool"
        }
      ],
      "payable": false,
      "stateMutability": "view",
      "type": "function"
    },
    {
      "constant": false,
      "inputs": [
        {
          "internalType": "address",
          "name": "_address",
          "type": "address"
        }
      ],
      "name": "addRawprodctOwner",
      "outputs": [],
      "payable": false,
      "stateMutability": "nonpayable",
      "type": "function"
    },
    {
      "constant": false,
      "inputs": [],
      "name": "renounceRawprodctOwner",
      "outputs": [],
      "payable": false,
      "stateMutability": "nonpayable",
      "type": "function"
    }
  ],
  "bytecode": "0x608060405234801561001057600080fd5b506100203361002560201b60201c565b6101e7565b61003d8160006100a360201b6103671790919060201c565b7f8803bbe6f85d9954ece6235a164aabd698384e9f73e76d5b143a0659134b99d281604051808273ffffffffffffffffffffffffffffffffffffffff1673ffffffffffffffffffffffffffffffffffffffff16815260200191505060405180910390a150565b600073ffffffffffffffffffffffffffffffffffffffff168173ffffffffffffffffffffffffffffffffffffffff1614156100dd57600080fd5b6100ed828261015560201b60201c565b156100f757600080fd5b60018260000160008373ffffffffffffffffffffffffffffffffffffffff1673ffffffffffffffffffffffffffffffffffffffff16815260200190815260200160002060006101000a81548160ff0219169083151502179055505050565b60008073ffffffffffffffffffffffffffffffffffffffff168273ffffffffffffffffffffffffffffffffffffffff16141561019057600080fd5b8260000160008373ffffffffffffffffffffffffffffffffffffffff1673ffffffffffffffffffffffffffffffffffffffff16815260200190815260200160002060009054906101000a900460ff16905092915050565b610448806101f66000396000f3fe608060405234801561001057600080fd5b50600436106100415760003560e01c8063719d1a851461004657806393ea7bdc14610050578063e1c646e514610094575b600080fd5b61004e6100f0565b005b6100926004803603602081101561006657600080fd5b81019080803573ffffffffffffffffffffffffffffffffffffffff1690602001909291905050506100fb565b005b6100d6600480360360208110156100aa57600080fd5b81019080803573ffffffffffffffffffffffffffffffffffffffff169060200190929190505050610119565b604051808215151515815260200191505060405180910390f35b6100f933610136565b565b61010433610119565b61010d57600080fd5b610116816101b0565b50565b600061012f82600061022a90919063ffffffff16565b9050919050565b61014a8160006102bc90919063ffffffff16565b7fb7a044caa0417a1da15fce1fd1a304983732cd0e08bd1e7c9a4418a0273c37d681604051808273ffffffffffffffffffffffffffffffffffffffff1673ffffffffffffffffffffffffffffffffffffffff16815260200191505060405180910390a150565b6101c481600061036790919063ffffffff16565b7f8803bbe6f85d9954ece6235a164aabd698384e9f73e76d5b143a0659134b99d281604051808273ffffffffffffffffffffffffffffffffffffffff1673ffffffffffffffffffffffffffffffffffffffff16815260200191505060405180910390a150565b60008073ffffffffffffffffffffffffffffffffffffffff168273ffffffffffffffffffffffffffffffffffffffff16141561026557600080fd5b8260000160008373ffffffffffffffffffffffffffffffffffffffff1673ffffffffffffffffffffffffffffffffffffffff16815260200190815260200160002060009054906101000a900460ff16905092915050565b600073ffffffffffffffffffffffffffffffffffffffff168173ffffffffffffffffffffffffffffffffffffffff1614156102f657600080fd5b610300828261022a565b61030957600080fd5b60008260000160008373ffffffffffffffffffffffffffffffffffffffff1673ffffffffffffffffffffffffffffffffffffffff16815260200190815260200160002060006101000a81548160ff0219169083151502179055505050565b600073ffffffffffffffffffffffffffffffffffffffff168173ffffffffffffffffffffffffffffffffffffffff1614156103a157600080fd5b6103ab828261022a565b156103b557600080fd5b60018260000160008373ffffffffffffffffffffffffffffffffffffffff1673ffffffffffffffffffffffffffffffffffffffff16815260200190815260200160002060006101000a81548160ff021916908315150217905550505056fea265627a7a72315820daac8ae0e2385e9f3445c2dc96443395927a87a239346ec18f56d26cbd7dacce64736f6c63430005100032",
  "source": "pragma solidity ^0.5.0;\n\nimport \"../Roles.sol\";\n\ncontract RawprodctOwner {\n    using Roles for Roles.Role;\n\n    event RawprodctOwnerAdded(address _address);\n    event RawprodctOwnerRemoved(address _address);\n\n    Roles.Role private rawprodctOwners;\n\n    constructor() public {\n        _addRawprodctOwner(msg.sender);\n    }\n\n    modifier onlyRawprodctOwner() {\n        require(isRawprodctOwner(msg.sender));\n        _;\n    }\n\n    function isRawprodctOwner(address _address) public view returns (bool) {\n        return rawprodctOwners.has(_address);\n    }\n\n    function addRawprodctOwner(address _address) public onlyRawprodctOwner {\n        _addRawprodctOwner(_address);\n    }\n\n    function renounceRawprodctOwner() public {\n        _removeRawprodctOwner(msg.sender);\n    }\n\n    function _addRawprodctOwner(address _address) internal {\n        rawprodctOwners.add(_address);\n        emit RawprodctOwnerAdded(_address);\n    }\n\n    function _removeRawprodctOwner(address _address) internal {\n        rawprodctOwners.remove(_address);\n        emit RawprodctOwnerRemoved(_address);\n    }\n}",
  "sourcePath": "/Users/max/Desktop/Product-supplychain/contracts/accesscontrol/Product/RawprodctOwner.sol",
  "compiler": {
    "name": "solc",
    "version": "0.5.16+commit.9c3226ce.Emscripten.clang"
  },
  "schemaVersion": "3.0.23",
  "updatedAt": "2020-08-03T17:26:02.895Z",
  "devdoc": {
    "methods": {}
  },
  "userdoc": {
    "methods": {}
  }
}