{
  "contractName": "SupplyChain",
  "abi": [
    {
      "inputs": [],
      "payable": false,
      "stateMutability": "nonpayable",
      "type": "constructor"
    },
    {
      "anonymous": false,
      "inputs": [
        {
          "indexed": false,
          "internalType": "uint256",
          "name": "farmId",
          "type": "uint256"
        }
      ],
      "name": "FarmRegistered",
      "type": "event"
    },
    {
      "anonymous": false,
      "inputs": [
        {
          "indexed": false,
          "internalType": "uint256",
          "name": "upc",
          "type": "uint256"
        }
      ],
      "name": "ProductConsumed",
      "type": "event"
    },
    {
      "anonymous": false,
      "inputs": [
        {
          "indexed": false,
          "internalType": "uint256",
          "name": "upc",
          "type": "uint256"
        }
      ],
      "name": "ProductForSale",
      "type": "event"
    },
    {
      "anonymous": false,
      "inputs": [
        {
          "indexed": false,
          "internalType": "uint256",
          "name": "upc",
          "type": "uint256"
        }
      ],
      "name": "ProductOwned",
      "type": "event"
    },
    {
      "anonymous": false,
      "inputs": [
        {
          "indexed": false,
          "internalType": "uint256",
          "name": "upc",
          "type": "uint256"
        }
      ],
      "name": "ProductShipped",
      "type": "event"
    },
    {
      "anonymous": false,
      "inputs": [
        {
          "indexed": false,
          "internalType": "uint256",
          "name": "upc",
          "type": "uint256"
        }
      ],
      "name": "ProductSold",
      "type": "event"
    },
    {
      "anonymous": false,
      "inputs": [
        {
          "indexed": false,
          "internalType": "uint256",
          "name": "rawprodctId",
          "type": "uint256"
        }
      ],
      "name": "RawprodctHarvested",
      "type": "event"
    },
    {
      "anonymous": false,
      "inputs": [
        {
          "indexed": false,
          "internalType": "uint256",
          "name": "rawprodctId",
          "type": "uint256"
        }
      ],
      "name": "RawprodctPacked",
      "type": "event"
    },
    {
      "anonymous": false,
      "inputs": [
        {
          "indexed": false,
          "internalType": "uint256",
          "name": "rawprodctId",
          "type": "uint256"
        }
      ],
      "name": "RawprodctforSaled",
      "type": "event"
    },
    {
      "constant": false,
      "inputs": [
        {
          "internalType": "string",
          "name": "_farmName",
          "type": "string"
        },
        {
          "internalType": "string",
          "name": "_locationName",
          "type": "string"
        },
        {
          "internalType": "string",
          "name": "_locationLong",
          "type": "string"
        },
        {
          "internalType": "string",
          "name": "_locationLat",
          "type": "string"
        },
        {
          "internalType": "string",
          "name": "_farmDescription",
          "type": "string"
        }
      ],
      "name": "registerFarm",
      "outputs": [],
      "payable": false,
      "stateMutability": "nonpayable",
      "type": "function"
    },
    {
      "constant": true,
      "inputs": [
        {
          "internalType": "uint256",
          "name": "_farmId",
          "type": "uint256"
        }
      ],
      "name": "getFarm",
      "outputs": [
        {
          "internalType": "uint256",
          "name": "farmId",
          "type": "uint256"
        },
        {
          "internalType": "string",
          "name": "name",
          "type": "string"
        },
        {
          "internalType": "string",
          "name": "locationName",
          "type": "string"
        },
        {
          "internalType": "string",
          "name": "longitude",
          "type": "string"
        },
        {
          "internalType": "string",
          "name": "latitude",
          "type": "string"
        },
        {
          "internalType": "address",
          "name": "owner",
          "type": "address"
        },
        {
          "internalType": "string",
          "name": "description",
          "type": "string"
        }
      ],
      "payable": false,
      "stateMutability": "view",
      "type": "function"
    },
    {
      "constant": false,
      "inputs": [
        {
          "internalType": "string",
          "name": "_name",
          "type": "string"
        },
        {
          "internalType": "uint256",
          "name": "_vintageYear",
          "type": "uint256"
        },
        {
          "internalType": "string",
          "name": "_notes",
          "type": "string"
        },
        {
          "internalType": "uint256",
          "name": "_farmId",
          "type": "uint256"
        }
      ],
      "name": "harvestRawprodct",
      "outputs": [],
      "payable": false,
      "stateMutability": "nonpayable",
      "type": "function"
    },
    {
      "constant": false,
      "inputs": [
        {
          "internalType": "uint256",
          "name": "_rawprodctId",
          "type": "uint256"
        }
      ],
      "name": "packRawprodct",
      "outputs": [],
      "payable": false,
      "stateMutability": "nonpayable",
      "type": "function"
    },
    {
      "constant": false,
      "inputs": [
        {
          "internalType": "uint256",
          "name": "_rawprodctId",
          "type": "uint256"
        }
      ],
      "name": "forsaleRawprodct",
      "outputs": [],
      "payable": false,
      "stateMutability": "nonpayable",
      "type": "function"
    },
    {
      "constant": true,
      "inputs": [
        {
          "internalType": "uint256",
          "name": "_rawprodctId",
          "type": "uint256"
        }
      ],
      "name": "getRawprodct",
      "outputs": [
        {
          "internalType": "uint256",
          "name": "rawprodctId",
          "type": "uint256"
        },
        {
          "internalType": "string",
          "name": "name",
          "type": "string"
        },
        {
          "internalType": "uint256",
          "name": "vintageYear",
          "type": "uint256"
        },
        {
          "internalType": "string",
          "name": "state",
          "type": "string"
        },
        {
          "internalType": "string",
          "name": "notes",
          "type": "string"
        },
        {
          "internalType": "uint256",
          "name": "farmId",
          "type": "uint256"
        },
        {
          "internalType": "address",
          "name": "owner",
          "type": "address"
        }
      ],
      "payable": false,
      "stateMutability": "view",
      "type": "function"
    },
    {
      "constant": false,
      "inputs": [
        {
          "internalType": "uint256",
          "name": "_rawprodctId",
          "type": "uint256"
        }
      ],
      "name": "createProduct",
      "outputs": [],
      "payable": false,
      "stateMutability": "nonpayable",
      "type": "function"
    },
    {
      "constant": false,
      "inputs": [
        {
          "internalType": "uint256",
          "name": "_upc",
          "type": "uint256"
        },
        {
          "internalType": "uint256",
          "name": "_price",
          "type": "uint256"
        }
      ],
      "name": "addProductForSale",
      "outputs": [],
      "payable": false,
      "stateMutability": "nonpayable",
      "type": "function"
    },
    {
      "constant": false,
      "inputs": [
        {
          "internalType": "uint256",
          "name": "_upc",
          "type": "uint256"
        }
      ],
      "name": "buyProduct",
      "outputs": [],
      "payable": true,
      "stateMutability": "payable",
      "type": "function"
    },
    {
      "constant": false,
      "inputs": [
        {
          "internalType": "uint256",
          "name": "_upc",
          "type": "uint256"
        }
      ],
      "name": "shipProduct",
      "outputs": [],
      "payable": false,
      "stateMutability": "nonpayable",
      "type": "function"
    },
    {
      "constant": false,
      "inputs": [
        {
          "internalType": "uint256",
          "name": "_upc",
          "type": "uint256"
        }
      ],
      "name": "receiveProduct",
      "outputs": [],
      "payable": false,
      "stateMutability": "nonpayable",
      "type": "function"
    },
    {
      "constant": false,
      "inputs": [
        {
          "internalType": "uint256",
          "name": "_upc",
          "type": "uint256"
        }
      ],
      "name": "consumeProduct",
      "outputs": [],
      "payable": false,
      "stateMutability": "nonpayable",
      "type": "function"
    },
    {
      "constant": true,
      "inputs": [
        {
          "internalType": "uint256",
          "name": "_upc",
          "type": "uint256"
        }
      ],
      "name": "getProduct",
      "outputs": [
        {
          "internalType": "uint256",
          "name": "upc",
          "type": "uint256"
        },
        {
          "internalType": "uint256",
          "name": "sku",
          "type": "uint256"
        },
        {
          "internalType": "uint256",
          "name": "productId",
          "type": "uint256"
        },
        {
          "internalType": "uint256",
          "name": "price",
          "type": "uint256"
        },
        {
          "internalType": "address",
          "name": "owner",
          "type": "address"
        },
        {
          "internalType": "address",
          "name": "buyer",
          "type": "address"
        },
        {
          "internalType": "string",
          "name": "state",
          "type": "string"
        },
        {
          "internalType": "uint256",
          "name": "rawprodctId",
          "type": "uint256"
        }
      ],
      "payable": false,
      "stateMutability": "view",
      "type": "function"
    }
  ],
  "bytecode": "0x608060405234801561001057600080fd5b50336000806101000a81548173ffffffffffffffffffffffffffffffffffffffff021916908373ffffffffffffffffffffffffffffffffffffffff16021790555060006001819055506000600281905550600060048190555061412d806100786000396000f3fe6080604052600436106100c25760003560e01c806353fd88bf1161007f578063800a263f11610059578063800a263f146109c95780638642269e14610a04578063b9db15b414610a32578063de266c0c14610b6f576100c2565b806353fd88bf146105125780637138ffdc146107b05780637522fbe9146107f5576100c2565b80632927d1d9146100c757806329d78328146101025780632a422e921461013d5780633f50e5af1461017857806345a600761461049c578063519e4a7d146104d7575b600080fd5b3480156100d357600080fd5b50610100600480360360208110156100ea57600080fd5b8101908080359060200190929190505050610ce2565b005b34801561010e57600080fd5b5061013b6004803603602081101561012557600080fd5b8101908080359060200190929190505050610f17565b005b34801561014957600080fd5b506101766004803603602081101561016057600080fd5b810190808035906020019092919050505061122d565b005b34801561018457600080fd5b5061049a600480360360a081101561019b57600080fd5b81019080803590602001906401000000008111156101b857600080fd5b8201836020820111156101ca57600080fd5b803590602001918460018302840111640100000000831117156101ec57600080fd5b91908080601f016020809104026020016040519081016040528093929190818152602001838380828437600081840152601f19601f8201169050808301925050505050505091929192908035906020019064010000000081111561024f57600080fd5b82018360208201111561026157600080fd5b8035906020019184600183028401116401000000008311171561028357600080fd5b91908080601f016020809104026020016040519081016040528093929190818152602001838380828437600081840152601f19601f820116905080830192505050505050509192919290803590602001906401000000008111156102e657600080fd5b8201836020820111156102f857600080fd5b8035906020019184600183028401116401000000008311171561031a57600080fd5b91908080601f016020809104026020016040519081016040528093929190818152602001838380828437600081840152601f19601f8201169050808301925050505050505091929192908035906020019064010000000081111561037d57600080fd5b82018360208201111561038f57600080fd5b803590602001918460018302840111640100000000831117156103b157600080fd5b91908080601f016020809104026020016040519081016040528093929190818152602001838380828437600081840152601f19601f8201169050808301925050505050505091929192908035906020019064010000000081111561041457600080fd5b82018360208201111561042657600080fd5b8035906020019184600183028401116401000000008311171561044857600080fd5b91908080601f016020809104026020016040519081016040528093929190818152602001838380828437600081840152601f19601f820116905080830192505050505050509192919290505050611d3a565b005b3480156104a857600080fd5b506104d5600480360360208110156104bf57600080fd5b8101908080359060200190929190505050611ef0565b005b3480156104e357600080fd5b50610510600480360360208110156104fa57600080fd5b8101908080359060200190929190505050612125565b005b34801561051e57600080fd5b5061054b6004803603602081101561053557600080fd5b810190808035906020019092919050505061235a565b60405180888152602001806020018060200180602001806020018773ffffffffffffffffffffffffffffffffffffffff1673ffffffffffffffffffffffffffffffffffffffff1681526020018060200186810386528c818151815260200191508051906020019080838360005b838110156105d35780820151818401526020810190506105b8565b50505050905090810190601f1680156106005780820380516001836020036101000a031916815260200191505b5086810385528b818151815260200191508051906020019080838360005b8381101561063957808201518184015260208101905061061e565b50505050905090810190601f1680156106665780820380516001836020036101000a031916815260200191505b5086810384528a818151815260200191508051906020019080838360005b8381101561069f578082015181840152602081019050610684565b50505050905090810190601f1680156106cc5780820380516001836020036101000a031916815260200191505b50868103835289818151815260200191508051906020019080838360005b838110156107055780820151818401526020810190506106ea565b50505050905090810190601f1680156107325780820380516001836020036101000a031916815260200191505b50868103825287818151815260200191508051906020019080838360005b8381101561076b578082015181840152602081019050610750565b50505050905090810190601f1680156107985780820380516001836020036101000a031916815260200191505b509c5050505050505050505050505060405180910390f35b3480156107bc57600080fd5b506107f3600480360360408110156107d357600080fd5b8101908080359060200190929190803590602001909291905050506127b2565b005b34801561080157600080fd5b5061082e6004803603602081101561081857600080fd5b8101908080359060200190929190505050612a7b565b604051808881526020018060200187815260200180602001806020018681526020018573ffffffffffffffffffffffffffffffffffffffff1673ffffffffffffffffffffffffffffffffffffffff16815260200184810384528a818151815260200191508051906020019080838360005b838110156108ba57808201518184015260208101905061089f565b50505050905090810190601f1680156108e75780820380516001836020036101000a031916815260200191505b50848103835288818151815260200191508051906020019080838360005b83811015610920578082015181840152602081019050610905565b50505050905090810190601f16801561094d5780820380516001836020036101000a031916815260200191505b50848103825287818151815260200191508051906020019080838360005b8381101561098657808201518184015260208101905061096b565b50505050905090810190601f1680156109b35780820380516001836020036101000a031916815260200191505b509a505050505050505050505060405180910390f35b3480156109d557600080fd5b50610a02600480360360208110156109ec57600080fd5b8101908080359060200190929190505050612e26565b005b610a3060048036036020811015610a1a57600080fd5b810190808035906020019092919050505061305b565b005b348015610a3e57600080fd5b50610a6b60048036036020811015610a5557600080fd5b810190808035906020019092919050505061348d565b604051808981526020018881526020018781526020018681526020018573ffffffffffffffffffffffffffffffffffffffff1673ffffffffffffffffffffffffffffffffffffffff1681526020018473ffffffffffffffffffffffffffffffffffffffff1673ffffffffffffffffffffffffffffffffffffffff16815260200180602001838152602001828103825284818151815260200191508051906020019080838360005b83811015610b2d578082015181840152602081019050610b12565b50505050905090810190601f168015610b5a5780820380516001836020036101000a031916815260200191505b50995050505050505050505060405180910390f35b348015610b7b57600080fd5b50610ce060048036036080811015610b9257600080fd5b8101908080359060200190640100000000811115610baf57600080fd5b820183602082011115610bc157600080fd5b80359060200191846001830284011164010000000083111715610be357600080fd5b91908080601f016020809104026020016040519081016040528093929190818152602001838380828437600081840152601f19601f8201169050808301925050505050505091929192908035906020019092919080359060200190640100000000811115610c5057600080fd5b820183602082011115610c6257600080fd5b80359060200191846001830284011164010000000083111715610c8457600080fd5b91908080601f016020809104026020016040519081016040528093929190818152602001838380828437600081840152601f19601f82011690508083019250505050505050919291929080359060200190929190505050613822565b005b806000600760008381526020019081526020016000206000015411610d52576040517f08c379a0000000000000000000000000000000000000000000000000000000008152600401808060200182810382526026815260200180613fcf6026913960400191505060405180910390fd5b816002806004811115610d6157fe5b6007600084815260200190815260200160002060110160009054906101000a900460ff166004811115610d9057fe5b14610de6576040517f08c379a000000000000000000000000000000000000000000000000000000000815260040180806020018281038252602c815260200180614027602c913960400191505060405180910390fd5b6007600085815260200190815260200160002060120160009054906101000a900473ffffffffffffffffffffffffffffffffffffffff168073ffffffffffffffffffffffffffffffffffffffff163373ffffffffffffffffffffffffffffffffffffffff1614610ea1576040517f08c379a000000000000000000000000000000000000000000000000000000000815260040180806020018281038252602d815260200180614053602d913960400191505060405180910390fd5b60036007600087815260200190815260200160002060110160006101000a81548160ff02191690836004811115610ed457fe5b02179055507ff91b0b39fbb56d78224050bb7e56777ee7aca5ed18ada91cc9c21677db7f9abe856040518082815260200191505060405180910390a15050505050565b806000600760008381526020019081526020016000206000015411610f87576040517f08c379a0000000000000000000000000000000000000000000000000000000008152600401808060200182810382526026815260200180613fcf6026913960400191505060405180910390fd5b816003806004811115610f9657fe5b6007600084815260200190815260200160002060110160009054906101000a900460ff166004811115610fc557fe5b1461101b576040517f08c379a000000000000000000000000000000000000000000000000000000000815260040180806020018281038252602c815260200180614027602c913960400191505060405180910390fd5b6007600085815260200190815260200160002060110160019054906101000a900473ffffffffffffffffffffffffffffffffffffffff168073ffffffffffffffffffffffffffffffffffffffff163373ffffffffffffffffffffffffffffffffffffffff16146110d6576040517f08c379a000000000000000000000000000000000000000000000000000000000815260040180806020018281038252602d815260200180614053602d913960400191505060405180910390fd5b6007600086815260200190815260200160002060110160019054906101000a900473ffffffffffffffffffffffffffffffffffffffff166007600087815260200190815260200160002060120160006101000a81548173ffffffffffffffffffffffffffffffffffffffff021916908373ffffffffffffffffffffffffffffffffffffffff16021790555060006007600087815260200190815260200160002060110160016101000a81548173ffffffffffffffffffffffffffffffffffffffff021916908373ffffffffffffffffffffffffffffffffffffffff16021790555060006007600087815260200190815260200160002060110160006101000a81548160ff021916908360048111156111ea57fe5b02179055507fc5cdb23b86af50728e030ba76289c5c86282add07e3199a0799a12fe52921a2c856040518082815260200191505060405180910390a15050505050565b80600060066000838152602001908152602001600020600001541161129d576040517f08c379a00000000000000000000000000000000000000000000000000000000081526004018080602001828103825260278152602001806140b16027913960400191505060405180910390fd5b8160028060028111156112ac57fe5b6006600084815260200190815260200160002060050160009054906101000a900460ff1660028111156112db57fe5b14611331576040517f08c379a00000000000000000000000000000000000000000000000000000000081526004018080602001828103825260318152602001806140806031913960400191505060405180910390fd5b6006600085815260200190815260200160002060030160009054906101000a900473ffffffffffffffffffffffffffffffffffffffff168073ffffffffffffffffffffffffffffffffffffffff163373ffffffffffffffffffffffffffffffffffffffff16146113ec576040517f08c379a000000000000000000000000000000000000000000000000000000000815260040180806020018281038252602d815260200180614053602d913960400191505060405180910390fd5b60016002540160028190555060016003540160038190555060405180610100016040528060025481526020016003548152602001600254600354018152602001600660008881526020019081526020016000206040518060e001604052908160008201548152602001600182018054600181600116156101000203166002900480601f0160208091040260200160405190810160405280929190818152602001828054600181600116156101000203166002900480156114ed5780601f106114c2576101008083540402835291602001916114ed565b820191906000526020600020905b8154815290600101906020018083116114d057829003601f168201915b50505050508152602001600282015481526020016003820160009054906101000a900473ffffffffffffffffffffffffffffffffffffffff1673ffffffffffffffffffffffffffffffffffffffff1673ffffffffffffffffffffffffffffffffffffffff168152602001600482018054600181600116156101000203166002900480601f0160208091040260200160405190810160405280929190818152602001828054600181600116156101000203166002900480156115ef5780601f106115c4576101008083540402835291602001916115ef565b820191906000526020600020905b8154815290600101906020018083116115d257829003601f168201915b505050505081526020016005820160009054906101000a900460ff16600281111561161657fe5b600281111561162157fe5b8152602001600682016040518060a001604052908160008201548152602001600182018054600181600116156101000203166002900480601f0160208091040260200160405190810160405280929190818152602001828054600181600116156101000203166002900480156116d85780601f106116ad576101008083540402835291602001916116d8565b820191906000526020600020905b8154815290600101906020018083116116bb57829003601f168201915b505050505081526020016002820160009054906101000a900473ffffffffffffffffffffffffffffffffffffffff1673ffffffffffffffffffffffffffffffffffffffff1673ffffffffffffffffffffffffffffffffffffffff168152602001600382018054600181600116156101000203166002900480601f0160208091040260200160405190810160405280929190818152602001828054600181600116156101000203166002900480156117d05780601f106117a5576101008083540402835291602001916117d0565b820191906000526020600020905b8154815290600101906020018083116117b357829003601f168201915b5050505050815260200160048201604051806060016040529081600082018054600181600116156101000203166002900480601f0160208091040260200160405190810160405280929190818152602001828054600181600116156101000203166002900480156118825780601f1061185757610100808354040283529160200191611882565b820191906000526020600020905b81548152906001019060200180831161186557829003601f168201915b50505050508152602001600182018054600181600116156101000203166002900480601f0160208091040260200160405190810160405280929190818152602001828054600181600116156101000203166002900480156119245780601f106118f957610100808354040283529160200191611924565b820191906000526020600020905b81548152906001019060200180831161190757829003601f168201915b50505050508152602001600282018054600181600116156101000203166002900480601f0160208091040260200160405190810160405280929190818152602001828054600181600116156101000203166002900480156119c65780601f1061199b576101008083540402835291602001916119c6565b820191906000526020600020905b8154815290600101906020018083116119a957829003601f168201915b5050505050815250508152505081525050815260200160008152602001600060048111156119f057fe5b8152602001600073ffffffffffffffffffffffffffffffffffffffff1681526020013373ffffffffffffffffffffffffffffffffffffffff16815250600760006002548152602001908152602001600020600082015181600001556020820151816001015560408201518160020155606082015181600301600082015181600001556020820151816001019080519060200190611a8e929190613f08565b506040820151816002015560608201518160030160006101000a81548173ffffffffffffffffffffffffffffffffffffffff021916908373ffffffffffffffffffffffffffffffffffffffff1602179055506080820151816004019080519060200190611afc929190613f08565b5060a08201518160050160006101000a81548160ff02191690836002811115611b2157fe5b021790555060c082015181600601600082015181600001556020820151816001019080519060200190611b55929190613f08565b5060408201518160020160006101000a81548173ffffffffffffffffffffffffffffffffffffffff021916908373ffffffffffffffffffffffffffffffffffffffff1602179055506060820151816003019080519060200190611bb9929190613f08565b506080820151816004016000820151816000019080519060200190611bdf929190613f08565b506020820151816001019080519060200190611bfc929190613f08565b506040820151816002019080519060200190611c19929190613f08565b505050505050506080820151816010015560a08201518160110160006101000a81548160ff02191690836004811115611c4e57fe5b021790555060c08201518160110160016101000a81548173ffffffffffffffffffffffffffffffffffffffff021916908373ffffffffffffffffffffffffffffffffffffffff16021790555060e08201518160120160006101000a81548173ffffffffffffffffffffffffffffffffffffffff021916908373ffffffffffffffffffffffffffffffffffffffff1602179055509050507fc5cdb23b86af50728e030ba76289c5c86282add07e3199a0799a12fe52921a2c600760006002548152602001908152602001600020600001546040518082815260200191505060405180910390a15050505050565b600160045401600481905550611d4e613f88565b60405180606001604052808581526020018481526020018681525090506040518060a0016040528060045481526020018781526020013373ffffffffffffffffffffffffffffffffffffffff16815260200183815260200182815250600560006004548152602001908152602001600020600082015181600001556020820151816001019080519060200190611de5929190613f08565b5060408201518160020160006101000a81548173ffffffffffffffffffffffffffffffffffffffff021916908373ffffffffffffffffffffffffffffffffffffffff1602179055506060820151816003019080519060200190611e49929190613f08565b506080820151816004016000820151816000019080519060200190611e6f929190613f08565b506020820151816001019080519060200190611e8c929190613f08565b506040820151816002019080519060200190611ea9929190613f08565b5050509050507fadcbbe61c5d6ff6673093971416854cb6caf33849661e18c72646f0e1ca01bbb6004546040518082815260200191505060405180910390a1505050505050565b806000600660008381526020019081526020016000206000015411611f60576040517f08c379a00000000000000000000000000000000000000000000000000000000081526004018080602001828103825260278152602001806140b16027913960400191505060405180910390fd5b816001806002811115611f6f57fe5b6006600084815260200190815260200160002060050160009054906101000a900460ff166002811115611f9e57fe5b14611ff4576040517f08c379a00000000000000000000000000000000000000000000000000000000081526004018080602001828103825260318152602001806140806031913960400191505060405180910390fd5b6006600085815260200190815260200160002060030160009054906101000a900473ffffffffffffffffffffffffffffffffffffffff168073ffffffffffffffffffffffffffffffffffffffff163373ffffffffffffffffffffffffffffffffffffffff16146120af576040517f08c379a000000000000000000000000000000000000000000000000000000000815260040180806020018281038252602d815260200180614053602d913960400191505060405180910390fd5b60026006600087815260200190815260200160002060050160006101000a81548160ff021916908360028111156120e257fe5b02179055507f47ab7df27c7a4d41c250e587eb572287649c1ca4666141eeff4d526e39fc6b4e856040518082815260200191505060405180910390a15050505050565b806000600660008381526020019081526020016000206000015411612195576040517f08c379a00000000000000000000000000000000000000000000000000000000081526004018080602001828103825260278152602001806140b16027913960400191505060405180910390fd5b8160008060028111156121a457fe5b6006600084815260200190815260200160002060050160009054906101000a900460ff1660028111156121d357fe5b14612229576040517f08c379a00000000000000000000000000000000000000000000000000000000081526004018080602001828103825260318152602001806140806031913960400191505060405180910390fd5b6006600085815260200190815260200160002060030160009054906101000a900473ffffffffffffffffffffffffffffffffffffffff168073ffffffffffffffffffffffffffffffffffffffff163373ffffffffffffffffffffffffffffffffffffffff16146122e4576040517f08c379a000000000000000000000000000000000000000000000000000000000815260040180806020018281038252602d815260200180614053602d913960400191505060405180910390fd5b60016006600087815260200190815260200160002060050160006101000a81548160ff0219169083600281111561231757fe5b02179055507f6652ede507383514674f1fb854c85a34a58d4852234b6ff7f66c9cacd7c4347e856040518082815260200191505060405180910390a15050505050565b6000606080606080600060608760006005600083815260200190815260200160002060000154116123d6576040517f08c379a00000000000000000000000000000000000000000000000000000000081526004018080602001828103825260218152602001806140d86021913960400191505060405180910390fd5b600560008a8152602001908152602001600020600001549750600560008a81526020019081526020016000206001018054600181600116156101000203166002900480601f0160208091040260200160405190810160405280929190818152602001828054600181600116156101000203166002900480156124995780601f1061246e57610100808354040283529160200191612499565b820191906000526020600020905b81548152906001019060200180831161247c57829003601f168201915b50505050509650600560008a81526020019081526020016000206004016002018054600181600116156101000203166002900480601f01602080910402602001604051908101604052809291908181526020018280546001816001161561010002031660029004801561254d5780601f106125225761010080835404028352916020019161254d565b820191906000526020600020905b81548152906001019060200180831161253057829003601f168201915b50505050509550600560008a81526020019081526020016000206004016000018054600181600116156101000203166002900480601f0160208091040260200160405190810160405280929190818152602001828054600181600116156101000203166002900480156126015780601f106125d657610100808354040283529160200191612601565b820191906000526020600020905b8154815290600101906020018083116125e457829003601f168201915b50505050509450600560008a81526020019081526020016000206004016001018054600181600116156101000203166002900480601f0160208091040260200160405190810160405280929190818152602001828054600181600116156101000203166002900480156126b55780601f1061268a576101008083540402835291602001916126b5565b820191906000526020600020905b81548152906001019060200180831161269857829003601f168201915b50505050509350600560008a815260200190815260200160002060020160009054906101000a900473ffffffffffffffffffffffffffffffffffffffff169250600560008a81526020019081526020016000206003018054600181600116156101000203166002900480601f01602080910402602001604051908101604052809291908181526020018280546001816001161561010002031660029004801561279f5780601f106127745761010080835404028352916020019161279f565b820191906000526020600020905b81548152906001019060200180831161278257829003601f168201915b5050505050915050919395979092949650565b816000600760008381526020019081526020016000206000015411612822576040517f08c379a0000000000000000000000000000000000000000000000000000000008152600401808060200182810382526026815260200180613fcf6026913960400191505060405180910390fd5b82600080600481111561283157fe5b6007600084815260200190815260200160002060110160009054906101000a900460ff16600481111561286057fe5b146128b6576040517f08c379a000000000000000000000000000000000000000000000000000000000815260040180806020018281038252602c815260200180614027602c913960400191505060405180910390fd5b836000811161292d576040517f08c379a00000000000000000000000000000000000000000000000000000000081526004018080602001828103825260168152602001807f50726963652063616e206e6f74206265207a65726f2e0000000000000000000081525060200191505060405180910390fd5b6007600087815260200190815260200160002060120160009054906101000a900473ffffffffffffffffffffffffffffffffffffffff168073ffffffffffffffffffffffffffffffffffffffff163373ffffffffffffffffffffffffffffffffffffffff16146129e8576040517f08c379a000000000000000000000000000000000000000000000000000000000815260040180806020018281038252602d815260200180614053602d913960400191505060405180910390fd5b85600760008981526020019081526020016000206010018190555060016007600089815260200190815260200160002060110160006101000a81548160ff02191690836004811115612a3657fe5b02179055507fc3735d5e6f5c6a6aac0829a4b1c29db102ee99b129d3736bc18820c0cededf16876040518082815260200191505060405180910390a150505050505050565b600060606000606080600080876000600660008381526020019081526020016000206000015411612af7576040517f08c379a00000000000000000000000000000000000000000000000000000000081526004018080602001828103825260278152602001806140b16027913960400191505060405180910390fd5b889750600660008a81526020019081526020016000206001018054600181600116156101000203166002900480601f016020809104026020016040519081016040528092919081815260200182805460018160011615610100020316600290048015612ba45780601f10612b7957610100808354040283529160200191612ba4565b820191906000526020600020905b815481529060010190602001808311612b8757829003601f168201915b50505050509650600660008a8152602001908152602001600020600201549550600660008a8152602001908152602001600020600601600001549250600660008a81526020019081526020016000206004018054600181600116156101000203166002900480601f016020809104026020016040519081016040528092919081815260200182805460018160011615610100020316600290048015612c8a5780601f10612c5f57610100808354040283529160200191612c8a565b820191906000526020600020905b815481529060010190602001808311612c6d57829003601f168201915b50505050509350600660008a815260200190815260200160002060030160009054906101000a900473ffffffffffffffffffffffffffffffffffffffff1691506000600660008b815260200190815260200160002060050160009054906101000a900460ff166002811115612cfb57fe5b1415612d3a576040518060400160405280600981526020017f486172766573746564000000000000000000000000000000000000000000000081525094505b6001600660008b815260200190815260200160002060050160009054906101000a900460ff166002811115612d6b57fe5b1415612daa576040518060400160405280600681526020017f5061636b6564000000000000000000000000000000000000000000000000000081525094505b6002600660008b815260200190815260200160002060050160009054906101000a900460ff166002811115612ddb57fe5b1415612e1a576040518060400160405280600781526020017f666f7273616c650000000000000000000000000000000000000000000000000081525094505b50919395979092949650565b806000600760008381526020019081526020016000206000015411612e96576040517f08c379a0000000000000000000000000000000000000000000000000000000008152600401808060200182810382526026815260200180613fcf6026913960400191505060405180910390fd5b816000806004811115612ea557fe5b6007600084815260200190815260200160002060110160009054906101000a900460ff166004811115612ed457fe5b14612f2a576040517f08c379a000000000000000000000000000000000000000000000000000000000815260040180806020018281038252602c815260200180614027602c913960400191505060405180910390fd5b6007600085815260200190815260200160002060120160009054906101000a900473ffffffffffffffffffffffffffffffffffffffff168073ffffffffffffffffffffffffffffffffffffffff163373ffffffffffffffffffffffffffffffffffffffff1614612fe5576040517f08c379a000000000000000000000000000000000000000000000000000000000815260040180806020018281038252602d815260200180614053602d913960400191505060405180910390fd5b60046007600087815260200190815260200160002060110160006101000a81548160ff0219169083600481111561301857fe5b02179055507f89c80667ed928fc2bc613d87ce660bff4977c391f25f898a16f9c0a48aa41e09856040518082815260200191505060405180910390a15050505050565b8060006007600083815260200190815260200160002060000154116130cb576040517f08c379a0000000000000000000000000000000000000000000000000000000008152600401808060200182810382526026815260200180613fcf6026913960400191505060405180910390fd5b8160018060048111156130da57fe5b6007600084815260200190815260200160002060110160009054906101000a900460ff16600481111561310957fe5b1461315f576040517f08c379a000000000000000000000000000000000000000000000000000000000815260040180806020018281038252602c815260200180614027602c913960400191505060405180910390fd5b6007600085815260200190815260200160002060120160009054906101000a900473ffffffffffffffffffffffffffffffffffffffff168073ffffffffffffffffffffffffffffffffffffffff163373ffffffffffffffffffffffffffffffffffffffff16141561321b576040517f08c379a000000000000000000000000000000000000000000000000000000000815260040180806020018281038252602d815260200180614053602d913960400191505060405180910390fd5b60076000868152602001908152602001600020601001548034101561328b576040517f08c379a0000000000000000000000000000000000000000000000000000000008152600401808060200182810382526032815260200180613ff56032913960400191505060405180910390fd5b85336007600089815260200190815260200160002060110160016101000a81548173ffffffffffffffffffffffffffffffffffffffff021916908373ffffffffffffffffffffffffffffffffffffffff16021790555060026007600089815260200190815260200160002060110160006101000a81548160ff0219169083600481111561331457fe5b02179055506007600088815260200190815260200160002060120160009054906101000a900473ffffffffffffffffffffffffffffffffffffffff1673ffffffffffffffffffffffffffffffffffffffff166108fc600760008a8152602001908152602001600020601001549081150290604051600060405180830381858888f193505050501580156133ab573d6000803e3d6000fd5b507f3473c2d98208cbe519d24c7336288e8321fc3849abaca8e91d4aa7bee561cc4f876040518082815260200191505060405180910390a1600060076000838152602001908152602001600020601001549050600081340390506007600084815260200190815260200160002060110160019054906101000a900473ffffffffffffffffffffffffffffffffffffffff1673ffffffffffffffffffffffffffffffffffffffff166108fc829081150290604051600060405180830381858888f19350505050158015613481573d6000803e3d6000fd5b50505050505050505050565b6000806000806000806060600088600060076000838152602001908152602001600020600001541161350a576040517f08c379a0000000000000000000000000000000000000000000000000000000008152600401808060200182810382526026815260200180613fcf6026913960400191505060405180910390fd5b899850600760008b8152602001908152602001600020600101549750600760008b8152602001908152602001600020600201549650600760008b8152602001908152602001600020601001549550600760008b815260200190815260200160002060120160009054906101000a900473ffffffffffffffffffffffffffffffffffffffff169450600760008b815260200190815260200160002060110160019054906101000a900473ffffffffffffffffffffffffffffffffffffffff169350600760008b81526020019081526020016000206003016000015491506000600760008c815260200190815260200160002060110160009054906101000a900460ff16600481111561361757fe5b1415613656576040518060400160405280600581526020017f4f776e656400000000000000000000000000000000000000000000000000000081525092505b6001600760008c815260200190815260200160002060110160009054906101000a900460ff16600481111561368757fe5b14156136c6576040518060400160405280600881526020017f466f722053616c6500000000000000000000000000000000000000000000000081525092505b6002600760008c815260200190815260200160002060110160009054906101000a900460ff1660048111156136f757fe5b1415613736576040518060400160405280600481526020017f536f6c640000000000000000000000000000000000000000000000000000000081525092505b6003600760008c815260200190815260200160002060110160009054906101000a900460ff16600481111561376757fe5b14156137a6576040518060400160405280600781526020017f536869707065640000000000000000000000000000000000000000000000000081525092505b6004600760008c815260200190815260200160002060110160009054906101000a900460ff1660048111156137d757fe5b1415613816576040518060400160405280600881526020017f436f6e73756d656400000000000000000000000000000000000000000000000081525092505b50919395975091939597565b6005600082815260200190815260200160002060020160009054906101000a900473ffffffffffffffffffffffffffffffffffffffff168073ffffffffffffffffffffffffffffffffffffffff163373ffffffffffffffffffffffffffffffffffffffff16146138dd576040517f08c379a000000000000000000000000000000000000000000000000000000000815260040180806020018281038252602d815260200180614053602d913960400191505060405180910390fd5b60018054016001819055506040518060e0016040528060015481526020018681526020018581526020013373ffffffffffffffffffffffffffffffffffffffff1681526020018481526020016000600281111561393657fe5b8152602001600560008581526020019081526020016000206040518060a001604052908160008201548152602001600182018054600181600116156101000203166002900480601f0160208091040260200160405190810160405280929190818152602001828054600181600116156101000203166002900480156139fc5780601f106139d1576101008083540402835291602001916139fc565b820191906000526020600020905b8154815290600101906020018083116139df57829003601f168201915b505050505081526020016002820160009054906101000a900473ffffffffffffffffffffffffffffffffffffffff1673ffffffffffffffffffffffffffffffffffffffff1673ffffffffffffffffffffffffffffffffffffffff168152602001600382018054600181600116156101000203166002900480601f016020809104026020016040519081016040528092919081815260200182805460018160011615610100020316600290048015613af45780601f10613ac957610100808354040283529160200191613af4565b820191906000526020600020905b815481529060010190602001808311613ad757829003601f168201915b5050505050815260200160048201604051806060016040529081600082018054600181600116156101000203166002900480601f016020809104026020016040519081016040528092919081815260200182805460018160011615610100020316600290048015613ba65780601f10613b7b57610100808354040283529160200191613ba6565b820191906000526020600020905b815481529060010190602001808311613b8957829003601f168201915b50505050508152602001600182018054600181600116156101000203166002900480601f016020809104026020016040519081016040528092919081815260200182805460018160011615610100020316600290048015613c485780601f10613c1d57610100808354040283529160200191613c48565b820191906000526020600020905b815481529060010190602001808311613c2b57829003601f168201915b50505050508152602001600282018054600181600116156101000203166002900480601f016020809104026020016040519081016040528092919081815260200182805460018160011615610100020316600290048015613cea5780601f10613cbf57610100808354040283529160200191613cea565b820191906000526020600020905b815481529060010190602001808311613ccd57829003601f168201915b50505050508152505081525050815250600660006001548152602001908152602001600020600082015181600001556020820151816001019080519060200190613d35929190613f08565b506040820151816002015560608201518160030160006101000a81548173ffffffffffffffffffffffffffffffffffffffff021916908373ffffffffffffffffffffffffffffffffffffffff1602179055506080820151816004019080519060200190613da3929190613f08565b5060a08201518160050160006101000a81548160ff02191690836002811115613dc857fe5b021790555060c082015181600601600082015181600001556020820151816001019080519060200190613dfc929190613f08565b5060408201518160020160006101000a81548173ffffffffffffffffffffffffffffffffffffffff021916908373ffffffffffffffffffffffffffffffffffffffff1602179055506060820151816003019080519060200190613e60929190613f08565b506080820151816004016000820151816000019080519060200190613e86929190613f08565b506020820151816001019080519060200190613ea3929190613f08565b506040820151816002019080519060200190613ec0929190613f08565b50505050509050507fa24307816c42e4ac4ddf73ac4b1cbd2b53e126280b5f29f9225b91256fbee2e46001546040518082815260200191505060405180910390a15050505050565b828054600181600116156101000203166002900490600052602060002090601f016020900481019282601f10613f4957805160ff1916838001178555613f77565b82800160010185558215613f77579182015b82811115613f76578251825591602001919060010190613f5b565b5b509050613f849190613fa9565b5090565b60405180606001604052806060815260200160608152602001606081525090565b613fcb91905b80821115613fc7576000816000905550600101613faf565b5090565b9056fe50726f64756374207769746820676976656e2055504320646f6573206e6f742065786973742e426964207072696365206d757374206265206d6f7265206f7220657175616c20746f2070726f64756374277320707269636543757272656e742070726f6475637420737461746520666f72626964732074686973206f7065726174696f6e43757272656e742063616c6c65722063616e206e6f7420696e766f6b652074686973206f7065726174696f6e2e43757272656e742072617750726f647563747320737461746520666f72626964732074686973206f7065726174696f6e2e52617750726f647563742077697468207468697320696420646f6573206e6f742065786973742e4661726d2077697468207468697320696420646f6573206e6f742065786973742ea265627a7a7231582015e3d2c5f584c5d1cd4d4bf12f844c0a1f3297fa8b8e9666c3c346d98f26a78164736f6c63430005100032",
  "source": "pragma solidity ^0.5.0;\n\ncontract SupplyChain {\n    address contractOwner;\n    uint lastrawprodctId;\n    uint lastProductUpc;\n    uint lastProductSku;\n    uint lastFarmId;\n\n    struct Location {\n        string longitude;\n        string latitude;\n        string name;\n    }\n\n    struct Farm {\n        uint farmId;\n        string name;\n        address payable owner;\n        string description;\n        Location location;\n    }\n    mapping (uint => Farm) farms;\n    event FarmRegistered(uint farmId);\n\n    enum RawprodctState {Harvested, Packed, forsaled}\n    struct Rawprodct {\n        uint rawprodctId;\n        string name;\n        uint vintageYear;\n        address payable owner;\n        string notes;\n        RawprodctState state;\n        Farm farm;\n    }\n    mapping (uint => Rawprodct) rawprodcts;\n    event RawprodctHarvested(uint rawprodctId);\n    event RawprodctPacked(uint rawprodctId);\n        event RawprodctforSaled(uint rawprodctId);\n\n    enum ProductState {Owned, ForSale, Sold, Shipped, Consumed}\n    struct Product {\n        uint upc;\n        uint sku;\n        uint productId;\n        Rawprodct rawprodct;\n        uint price;\n        ProductState state;\n        address payable buyer;\n        address payable owner;\n    }\n    mapping (uint => Product) products;\n    event ProductOwned(uint upc);\n    event ProductForSale(uint upc);\n    event ProductSold(uint upc);\n    event ProductShipped(uint upc);\n    event ProductConsumed(uint upc);\n\n    modifier verifyCallerIs(address _address){\n        require(msg.sender == _address, \"Current caller can not invoke this operation.\");\n        _;\n    }\n\n    modifier verifyCallerIsNot(address _address) {\n        require(msg.sender != _address, \"Current caller can not invoke this operation.\");\n        _;\n    }\n\n    modifier farmExists(uint _farmId) {\n        require(farms[_farmId].farmId > 0, \"Farm with this id does not exist.\");\n        _;\n    }\n\n    modifier rawprodctExists(uint _rawprodctId) {\n        require(rawprodcts[_rawprodctId].rawprodctId > 0, \"RawProduct with this id does not exist.\");\n        _;\n    }\n\n    modifier verifyRawprodctState(uint _rawprodctId, RawprodctState _state) {\n        require(rawprodcts[_rawprodctId].state == _state, \"Current rawProducts state forbids this operation.\");\n        _;\n    }\n\n    modifier productExists(uint _upc) {\n        require(products[_upc].upc > 0, \"Product with given UPC does not exist.\");\n        _;\n    }\n\n    modifier verifyProductState(uint _upc, ProductState _state) {\n        require(products[_upc].state == _state, \"Current product state forbids this operation\");\n        _;\n    }\n\n    modifier priceNotZero(uint _price) {\n        require(_price > 0, \"Price can not be zero.\");\n        _;\n    }\n\n    modifier isPaidEnough(uint _price) {\n        require(msg.value >= _price, \"Bid price must be more or equal to product's price\");\n        _;\n    }\n\n    modifier returnChangeForExcess(uint _upc) {\n        _;\n        uint _price = products[_upc].price;\n        uint change = msg.value - _price;\n        products[_upc].buyer.transfer(change);\n    }\n\n    constructor() public {\n        contractOwner = msg.sender;\n        lastrawprodctId = 0;\n        lastProductUpc = 0;\n        lastFarmId = 0;\n    }\n\n    function registerFarm(string memory _farmName, string memory _locationName, string memory _locationLong, string memory _locationLat, string memory _farmDescription) public\n    {\n        lastFarmId = lastFarmId + 1;\n        Location memory location = Location({name: _locationName, longitude: _locationLong, latitude: _locationLat});\n        farms[lastFarmId] = Farm(\n            {farmId: lastFarmId,\n            name: _farmName,\n            location: location,\n            owner: msg.sender,\n            description: _farmDescription});\n        emit FarmRegistered(lastFarmId);\n    }\n    function getFarm(uint _farmId) public view\n    farmExists(_farmId)\n    returns (uint farmId, string memory name, string memory locationName, string memory longitude, string memory latitude, address owner, string memory description)\n    {\n        farmId = farms[_farmId].farmId;\n        name = farms[_farmId].name;\n        locationName = farms[_farmId].location.name;\n        longitude = farms[_farmId].location.longitude;\n        latitude = farms[_farmId].location.latitude;\n        owner = farms[_farmId].owner;\n        description = farms[_farmId].description;\n    }\n\n\n    function harvestRawprodct(string memory _name, uint _vintageYear, string memory _notes, uint _farmId) public\n    verifyCallerIs(farms[_farmId].owner) {\n        lastrawprodctId = lastrawprodctId + 1;\n        rawprodcts[lastrawprodctId] = Rawprodct(\n            {rawprodctId: lastrawprodctId,\n            name: _name,\n            vintageYear: _vintageYear,\n            owner: msg.sender,\n            notes: _notes,\n            state: RawprodctState.Harvested,\n            farm: farms[_farmId]});\n        emit RawprodctHarvested(lastrawprodctId);\n    }\n\n    function packRawprodct(uint _rawprodctId) public\n    rawprodctExists(_rawprodctId)\n    verifyRawprodctState(_rawprodctId, RawprodctState.Harvested)\n    verifyCallerIs(rawprodcts[_rawprodctId].owner) {\n        rawprodcts[_rawprodctId].state = RawprodctState.Packed;\n        emit RawprodctPacked(_rawprodctId);\n    }\n\n    function forsaleRawprodct(uint _rawprodctId) public\n    rawprodctExists(_rawprodctId)\n    verifyRawprodctState(_rawprodctId, RawprodctState.Packed)\n    verifyCallerIs(rawprodcts[_rawprodctId].owner) {\n        rawprodcts[_rawprodctId].state = RawprodctState.forsaled;\n        emit RawprodctforSaled(_rawprodctId);\n    }\n\n    function getRawprodct(uint _rawprodctId) public view\n    rawprodctExists(_rawprodctId)\n    returns (uint rawprodctId, string memory name, uint vintageYear, string memory state, string memory notes, uint farmId, address owner){\n        rawprodctId = _rawprodctId;\n        name = rawprodcts[_rawprodctId].name;\n        vintageYear = rawprodcts[_rawprodctId].vintageYear;\n        farmId = rawprodcts[_rawprodctId].farm.farmId;\n        notes = rawprodcts[_rawprodctId].notes;\n        owner = rawprodcts[_rawprodctId].owner;\n\n        if(uint(rawprodcts[_rawprodctId].state) == 0) {\n            state = \"Harvested\";\n        }\n        if(uint(rawprodcts[_rawprodctId].state) == 1) {\n            state = \"Packed\";\n        }\n        if(uint(rawprodcts[_rawprodctId].state) == 2) {\n            state = \"forsale\";\n        }\n    }\n\n\n    function createProduct(uint _rawprodctId) public\n    rawprodctExists(_rawprodctId)\n    verifyRawprodctState(_rawprodctId, RawprodctState.forsaled)\n    verifyCallerIs(rawprodcts[_rawprodctId].owner)   {\n        lastProductUpc = lastProductUpc + 1;\n        lastProductSku = lastProductSku + 1;\n        products[lastProductUpc] = Product(\n            {rawprodct: rawprodcts[_rawprodctId],\n            upc: lastProductUpc,\n            sku: lastProductSku,\n            productId: lastProductSku + lastProductUpc,\n            price: 0,\n            state: ProductState.Owned,\n            owner: msg.sender,\n            buyer: address(0)}\n        );\n        emit ProductOwned(products[lastProductUpc].upc);\n    }\n\n    function addProductForSale(uint _upc, uint _price) public\n    productExists(_upc)\n    verifyProductState(_upc, ProductState.Owned)\n    priceNotZero(_price)\n    verifyCallerIs(products[_upc].owner)  {\n        products[_upc].price = _price;\n        products[_upc].state = ProductState.ForSale;\n        emit ProductForSale(_upc);\n    }\n\n    function buyProduct(uint _upc) public payable\n    productExists(_upc)\n    verifyProductState(_upc, ProductState.ForSale)\n    verifyCallerIsNot(products[_upc].owner)\n    isPaidEnough(products[_upc].price)\n    returnChangeForExcess(_upc) {\n        products[_upc].buyer = msg.sender;\n        products[_upc].state = ProductState.Sold;\n        products[_upc].owner.transfer(products[_upc].price);\n        emit ProductSold(_upc);\n    }\n\n    function shipProduct(uint _upc) public\n    productExists(_upc)\n    verifyProductState(_upc, ProductState.Sold)\n    verifyCallerIs(products[_upc].owner) {\n        products[_upc].state = ProductState.Shipped;\n        emit ProductShipped(_upc);\n    }\n\n    function receiveProduct(uint _upc) public\n    productExists(_upc)\n    verifyProductState(_upc, ProductState.Shipped)\n    verifyCallerIs(products[_upc].buyer) {\n        products[_upc].owner = products[_upc].buyer;\n        products[_upc].buyer = address(0);\n        products[_upc].state = ProductState.Owned;\n        emit ProductOwned(_upc);\n    }\n\n    function consumeProduct(uint _upc) public\n    productExists(_upc)\n    verifyProductState(_upc, ProductState.Owned)\n    verifyCallerIs(products[_upc].owner) {\n        products[_upc].state = ProductState.Consumed;\n        emit ProductConsumed(_upc);\n    }\n\n    function getProduct(uint _upc) public view\n    productExists(_upc)\n    returns (uint upc, uint sku, uint productId, uint price, address owner, address buyer, string memory state, uint rawprodctId) {\n        upc = _upc;\n        sku = products[_upc].sku;\n        productId = products[_upc].productId;\n        price = products[_upc].price;\n        owner = products[_upc].owner;\n        buyer = products[_upc].buyer;\n        rawprodctId = products[_upc].rawprodct.rawprodctId;\n\n        if(uint(products[_upc].state) == 0) {\n            state = \"Owned\";\n        }\n        if(uint(products[_upc].state) == 1) {\n            state = \"For Sale\";\n        }\n        if(uint(products[_upc].state) == 2) {\n            state = \"Sold\";\n        }\n        if(uint(products[_upc].state) == 3) {\n            state = \"Shipped\";\n        }\n        if(uint(products[_upc].state) == 4) {\n            state = \"Consumed\";\n        }\n    }\n}",
  "sourcePath": "/Users/max/Desktop/Product-supplychain/contracts/Productbase/SupplyChain.sol",
  "compiler": {
    "name": "solc",
    "version": "0.5.16+commit.9c3226ce.Emscripten.clang"
  },
  "schemaVersion": "3.0.23",
  "updatedAt": "2020-08-08T07:05:36.487Z",
  "networkType": "ethereum",
  "devdoc": {
    "methods": {}
  },
  "userdoc": {
    "methods": {}
  }
}